:03000000020006F5
:03005F0002000399
:0300030002006296
:20006200120082D290C291C2921200B3C290D291C2921200B3C290C291D2921200B380E31D
:200082007E007F00C3EE9403EF648094805021C290C291C292C007C0061200B3D290D291B1
:2000A200D2921200B3D006D0070EBE00D70F80D4227E007F00C3EE9464EF64809480501D46
:1E00C2007C007D00C3EC94C8ED6480948050070CBC00F10D80EE0EBE00DB0F80D8227C
:06003500E478FFF6D8FD9F
:200013007900E94400601B7A009000E4780175A000E493F2A308B8000205A0D9F4DAF275AF
:02003300A0FF2C
:20003B007800E84400600A790175A000E4F309D8FC7800E84400600C7900900001E4F0A3C3
:04005B00D8FCD9FAFA
:0D0006007581071200E0E58260030200032F
:0400E0007582002203
:00000001FF
